


ARM Macro Assembler    Page 1 


    1 00000000         
    2 00000000                 AREA             |.boot|, CODE, READONLY
    3 00000000         APPSTART
                               PROC
    4 00000000                 EXPORT           APPSTART
    5 00000000         ;IMPORT  AppBoot
    6 00000000                 IMPORT           main
    7 00000000 BF00            NOP
    8 00000002 BF00            NOP
    9 00000004 4801            LDR              R0, = main
   10 00000006 4780            BLX              R0
   11 00000008 E7FE            B                .
   12 0000000A                 ENDP
   13 0000000A         
   14 0000000A 00 00           ALIGN
   15 0000000C                 END
              00000000 
Command Line: --debug --xref --diag_suppress=9931 --cpu=Cortex-M4.fp --apcs=int
erwork --depend=.\objects\appstart.d -o.\objects\appstart.o -Id:\Keil_v5\ARM\RV
31\INC -Id:\Keil_v5\ARM\CMSIS\Include -Id:\Keil_v5\ARM\Inc\ST\STM32F4xx --prede
fine="__UVISION_VERSION SETA 515" --list=.\listings\appstart.lst Os\AppStart.s



ARM Macro Assembler    Page 1 Alphabetic symbol ordering
Relocatable symbols

.boot 00000000

Symbol: .boot
   Definitions
      At line 2 in file Os\AppStart.s
   Uses
      None
Comment: .boot unused
APPSTART 00000000

Symbol: APPSTART
   Definitions
      At line 3 in file Os\AppStart.s
   Uses
      At line 4 in file Os\AppStart.s
Comment: APPSTART used once
2 symbols



ARM Macro Assembler    Page 1 Alphabetic symbol ordering
External symbols

main 00000000

Symbol: main
   Definitions
      At line 6 in file Os\AppStart.s
   Uses
      At line 9 in file Os\AppStart.s
Comment: main used once
1 symbol
337 symbols in table
